{
  "contractName": "EvidenceStorage",
  "abi": [
    {
      "inputs": [
        {
          "internalType": "string",
          "name": "",
          "type": "string"
        }
      ],
      "name": "evidences",
      "outputs": [
        {
          "internalType": "string",
          "name": "hash",
          "type": "string"
        },
        {
          "internalType": "string",
          "name": "filename",
          "type": "string"
        },
        {
          "internalType": "string",
          "name": "user",
          "type": "string"
        },
        {
          "internalType": "string",
          "name": "timestamp",
          "type": "string"
        }
      ],
      "stateMutability": "view",
      "type": "function",
      "constant": true
    },
    {
      "inputs": [
        {
          "internalType": "string",
          "name": "_hash",
          "type": "string"
        },
        {
          "internalType": "string",
          "name": "_filename",
          "type": "string"
        },
        {
          "internalType": "string",
          "name": "_user",
          "type": "string"
        },
        {
          "internalType": "string",
          "name": "_time",
          "type": "string"
        }
      ],
      "name": "storeEvidence",
      "outputs": [],
      "stateMutability": "nonpayable",
      "type": "function"
    },
    {
      "inputs": [
        {
          "internalType": "string",
          "name": "_filename",
          "type": "string"
        }
      ],
      "name": "getEvidence",
      "outputs": [
        {
          "internalType": "string",
          "name": "",
          "type": "string"
        },
        {
          "internalType": "string",
          "name": "",
          "type": "string"
        },
        {
          "internalType": "string",
          "name": "",
          "type": "string"
        },
        {
          "internalType": "string",
          "name": "",
          "type": "string"
        }
      ],
      "stateMutability": "view",
      "type": "function",
      "constant": true
    }
  ],
  "bytecode": "0x608060405234801561001057600080fd5b50610d37806100206000396000f3fe608060405234801561001057600080fd5b50600436106100415760003560e01c80634dd63030146100465780638dcc11ef14610079578063b16c6ee714610095575b600080fd5b610060600480360381019061005b91906107c6565b6100c8565b604051610070949392919061088e565b60405180910390f35b610093600480360381019061008e91906108ef565b61032e565b005b6100af60048036038101906100aa91906107c6565b6103ce565b6040516100bf949392919061088e565b60405180910390f35b600081805160208101820180518482526020830160208501208183528095505050505050600091509050806000018054610101906109f5565b80601f016020809104026020016040519081016040528092919081815260200182805461012d906109f5565b801561017a5780601f1061014f5761010080835404028352916020019161017a565b820191906000526020600020905b81548152906001019060200180831161015d57829003601f168201915b50505050509080600101805461018f906109f5565b80601f01602080910402602001604051908101604052809291908181526020018280546101bb906109f5565b80156102085780601f106101dd57610100808354040283529160200191610208565b820191906000526020600020905b8154815290600101906020018083116101eb57829003601f168201915b50505050509080600201805461021d906109f5565b80601f0160208091040260200160405190810160405280929190818152602001828054610249906109f5565b80156102965780601f1061026b57610100808354040283529160200191610296565b820191906000526020600020905b81548152906001019060200180831161027957829003601f168201915b5050505050908060030180546102ab906109f5565b80601f01602080910402602001604051908101604052809291908181526020018280546102d7906109f5565b80156103245780601f106102f957610100808354040283529160200191610324565b820191906000526020600020905b81548152906001019060200180831161030757829003601f168201915b5050505050905084565b60405180608001604052808581526020018481526020018381526020018281525060008460405161035f9190610a62565b908152602001604051809103902060008201518160000190816103829190610c2f565b5060208201518160010190816103989190610c2f565b5060408201518160020190816103ae9190610c2f565b5060608201518160030190816103c49190610c2f565b5090505050505050565b606080606080600080866040516103e59190610a62565b908152602001604051809103902060405180608001604052908160008201805461040e906109f5565b80601f016020809104026020016040519081016040528092919081815260200182805461043a906109f5565b80156104875780601f1061045c57610100808354040283529160200191610487565b820191906000526020600020905b81548152906001019060200180831161046a57829003601f168201915b505050505081526020016001820180546104a0906109f5565b80601f01602080910402602001604051908101604052809291908181526020018280546104cc906109f5565b80156105195780601f106104ee57610100808354040283529160200191610519565b820191906000526020600020905b8154815290600101906020018083116104fc57829003601f168201915b50505050508152602001600282018054610532906109f5565b80601f016020809104026020016040519081016040528092919081815260200182805461055e906109f5565b80156105ab5780601f10610580576101008083540402835291602001916105ab565b820191906000526020600020905b81548152906001019060200180831161058e57829003601f168201915b505050505081526020016003820180546105c4906109f5565b80601f01602080910402602001604051908101604052809291908181526020018280546105f0906109f5565b801561063d5780601f106106125761010080835404028352916020019161063d565b820191906000526020600020905b81548152906001019060200180831161062057829003601f168201915b505050505081525050905080600001518160200151826040015183606001519450945094509450509193509193565b6000604051905090565b600080fd5b600080fd5b600080fd5b600080fd5b6000601f19601f8301169050919050565b7f4e487b7100000000000000000000000000000000000000000000000000000000600052604160045260246000fd5b6106d38261068a565b810181811067ffffffffffffffff821117156106f2576106f161069b565b5b80604052505050565b600061070561066c565b905061071182826106ca565b919050565b600067ffffffffffffffff8211156107315761073061069b565b5b61073a8261068a565b9050602081019050919050565b82818337600083830152505050565b600061076961076484610716565b6106fb565b90508281526020810184848401111561078557610784610685565b5b610790848285610747565b509392505050565b600082601f8301126107ad576107ac610680565b5b81356107bd848260208601610756565b91505092915050565b6000602082840312156107dc576107db610676565b5b600082013567ffffffffffffffff8111156107fa576107f961067b565b5b61080684828501610798565b91505092915050565b600081519050919050565b600082825260208201905092915050565b60005b8381101561084957808201518184015260208101905061082e565b60008484015250505050565b60006108608261080f565b61086a818561081a565b935061087a81856020860161082b565b6108838161068a565b840191505092915050565b600060808201905081810360008301526108a88187610855565b905081810360208301526108bc8186610855565b905081810360408301526108d08185610855565b905081810360608301526108e48184610855565b905095945050505050565b6000806000806080858703121561090957610908610676565b5b600085013567ffffffffffffffff8111156109275761092661067b565b5b61093387828801610798565b945050602085013567ffffffffffffffff8111156109545761095361067b565b5b61096087828801610798565b935050604085013567ffffffffffffffff8111156109815761098061067b565b5b61098d87828801610798565b925050606085013567ffffffffffffffff8111156109ae576109ad61067b565b5b6109ba87828801610798565b91505092959194509250565b7f4e487b7100000000000000000000000000000000000000000000000000000000600052602260045260246000fd5b60006002820490506001821680610a0d57607f821691505b602082108103610a2057610a1f6109c6565b5b50919050565b600081905092915050565b6000610a3c8261080f565b610a468185610a26565b9350610a5681856020860161082b565b80840191505092915050565b6000610a6e8284610a31565b915081905092915050565b60008190508160005260206000209050919050565b60006020601f8301049050919050565b600082821b905092915050565b600060088302610adb7fffffffffffffffffffffffffffffffffffffffffffffffffffffffffffffffff82610a9e565b610ae58683610a9e565b95508019841693508086168417925050509392505050565b6000819050919050565b6000819050919050565b6000610b2c610b27610b2284610afd565b610b07565b610afd565b9050919050565b6000819050919050565b610b4683610b11565b610b5a610b5282610b33565b848454610aab565b825550505050565b600090565b610b6f610b62565b610b7a818484610b3d565b505050565b5b81811015610b9e57610b93600082610b67565b600181019050610b80565b5050565b601f821115610be357610bb481610a79565b610bbd84610a8e565b81016020851015610bcc578190505b610be0610bd885610a8e565b830182610b7f565b50505b505050565b600082821c905092915050565b6000610c0660001984600802610be8565b1980831691505092915050565b6000610c1f8383610bf5565b9150826002028217905092915050565b610c388261080f565b67ffffffffffffffff811115610c5157610c5061069b565b5b610c5b82546109f5565b610c66828285610ba2565b600060209050601f831160018114610c995760008415610c87578287015190505b610c918582610c13565b865550610cf9565b601f198416610ca786610a79565b60005b82811015610ccf57848901518255600182019150602085019450602081019050610caa565b86831015610cec5784890151610ce8601f891682610bf5565b8355505b6001600288020188555050505b50505050505056fea26469706673582212201f4789b3ba247d1dd547cf7ebdb6e5ae23bb5e4fd97633cdf12f9e413adbd8cd64736f6c63430008110033",
  "immutableReferences": {},
  "source": "pragma solidity ^0.8.0;\r\n\r\ncontract EvidenceStorage {\r\n\r\n    struct Evidence {\r\n        string hash;\r\n        string filename;\r\n        string user;\r\n        string timestamp;\r\n    }\r\n\r\n    mapping(string => Evidence) public evidences;\r\n\r\n    function storeEvidence(\r\n        string memory _hash,\r\n        string memory _filename,\r\n        string memory _user,\r\n        string memory _time\r\n    ) public {\r\n        evidences[_filename] = Evidence(_hash, _filename, _user, _time);\r\n    }\r\n\r\n    function getEvidence(string memory _filename) public view returns (\r\n        string memory, string memory, string memory, string memory\r\n    ) {\r\n        Evidence memory e = evidences[_filename];\r\n        return (e.hash, e.filename, e.user, e.timestamp);\r\n    }\r\n}",
  "sourcePath": "C:\\Users\\varsh\\OneDrive\\문서\\Desktop\\mini project\\implementation\\blockchain\\Blockchain_Forensic_Image_Storage\\contracts\\EvidenceStorage.sol",
  "compiler": {
    "name": "solc",
    "version": "0.8.17+commit.8df45f5f.Emscripten.clang"
  },
  "schemaVersion": "3.4.16",
  "updatedAt": "2026-04-13T04:37:20.571Z",
  "networkType": "ethereum",
  "devdoc": {
    "kind": "dev",
    "methods": {},
    "version": 1
  },
  "userdoc": {
    "kind": "user",
    "methods": {},
    "version": 1
  }
}